:100000000C9463000C948B000C948B000C9454049F
:100010000C9454040C9454040C948B000C948B009A
:100020000C948B000C948B000C948B000C948B0024
:100030000C948B000C948B000C948B000C948B0014
:100040000C94B2030C948B000C9422040C94FC03CB
:100050000C948B000C948B000C948B000C948B00F4
:100060000C948B000C948B000000000024002700EF
:100070002A0000000008000201000003040700003D
:1000800000000000000000000000230026002900FE
:1000900000000000250028002B00040404040404D0
:1000A0000404020202020202030303030303010227
:1000B00004081020408001020408102001020408F6
:1000C0001020CC04981511241FBECFEFD8E0DEBF5E
:1000D000CDBF11E0A0E0B1E0E2EDFBE202C005908F
:1000E0000D92AE3EB107D9F723E0AEEEB1E001C00C
:1000F0001D92AD30B207E1F710E0C2E6D0E004C0D7
:100100002197FE010E94D615C136D107C9F70E947A
:1001100075050C94DC150C940000FC01538D448D86
:10012000252F30E0842F90E0821B930B541710F0A2
:10013000CF96089501970895FC01918D828D9817AF
:1001400061F0A28DAE0FBF2FB11D5D968C91928D87
:100150009F5F9F73928F90E008958FEF9FEF0895B8
:10016000FC01918D828D981731F0828DE80FF11D81
:10017000858D90E008958FEF9FEF0895FC01918D9C
:10018000228D892F90E0805C9F4F821B91098F7395
:1001900099270895FC01A48DA80FB92FB11DA35A6A
:1001A000BF4F2C91848D90E001968F739927848F97
:1001B000A689B7892C93A089B1898C9183708064BA
:1001C0008C93938D848D981306C00288F389E02D5B
:1001D00080818F7D80830895EF92FF920F931F930C
:1001E000CF93DF93EC0181E0888F9B8D8C8D9813EA
:1001F0001AC0E889F989808185FF15C09FB7F894F6
:10020000EE89FF896083E889F98980818370806441
:1002100080839FBF81E090E0DF91CF911F910F918C
:10022000FF90EF900895F62E0B8D10E00F5F1F4F9B
:100230000F731127E02E8C8D8E110CC00FB607FCAA
:10024000FACFE889F989808185FFF5CFCE010E9438
:10025000CA00F1CFEB8DEC0FFD2FF11DE35AFF4FDC
:10026000F0829FB7F8940B8FEA89FB8980818062C6
:10027000CFCFCF93DF93EC01888D8823B9F0AA8983
:10028000BB89E889F9898C9185FD03C0808186FD51
:100290000DC00FB607FCF7CF8C9185FFF2CF8081A0
:1002A00085FFEDCFCE010E94CA00E9CFDF91CF914B
:1002B000089581E592E00E94BE0021E0892B09F4B7
:1002C00020E0822F089580E090E0892B29F00E94A1
:1002D000590181110C940000089590E0FC01EE5842
:1002E000FF4F2491FC01E255FF4F3491FC01E6568B
:1002F000FF4FE491EE23C9F0222339F0233001F1BE
:10030000A8F4213019F1223029F1F0E0EE0FFF1F9F
:10031000E057FF4FA591B4918FB7F894EC9161111C
:1003200026C030953E233C938FBF08952730A9F017
:100330002830C9F0243049F7809180008F7D03C0B8
:10034000809180008F7780938000DFCF84B58F7796
:1003500084BDDBCF84B58F7DFBCF8091B0008F77DC
:100360008093B000D2CF8091B0008F7DF9CF3E2B2B
:10037000DACFCF93DF9390E0FC01E255FF4F249159
:1003800086569F4FFC0184918823D1F090E0880F1E
:10039000991FFC01E859FF4FA591B491FC01E0576A
:1003A000FF4FC591D49161110EC09FB7F8948C9105
:1003B000E22FE0958E238C932881E223E8839FBF70
:1003C000DF91CF9108958FB7F894EC91E22BEC93E5
:1003D0008FBFF6CF3FB7F89480914D0290914E02B7
:1003E000A0914F02B091500226B5A89B05C02F3FA7
:1003F00019F00196A11DB11D3FBFBA2FA92F982F4B
:100400008827BC01CD01620F711D811D911D42E045
:10041000660F771F881F991F4A95D1F708958F920D
:100420009F92AF92BF92CF92DF92EF92FF926B01B9
:100430007C010E94EA014B015C01C114D104E1047A
:10044000F104B9F00E94EA01681979098A099B0947
:10045000683E73408105910580F321E0C21AD108FE
:10046000E108F10888EE880E83E0981EA11CB11CFB
:10047000E4CFFF90EF90DF90CF90BF90AF909F9030
:100480008F900895AF92BF92CF92DF92EF92FF923A
:100490000F931F93CF93DF936C017B018B01040FAC
:1004A000151FEB015E01AE18BF08C017D10759F048
:1004B0006991D601ED91FC910190F081E02DC6018A
:1004C0000995892B79F7C501DF91CF911F910F9184
:1004D000FF90EF90DF90CF90BF90AF900895209164
:1004E0003002309131022817390771F490912E02B1
:1004F00080912F02981741F0E0912E02F0E0E25136
:10050000FE4F808190E008958FEF9FEF089508954A
:10051000EF92FF920F931F93CF93DF93DC015C96D2
:10052000ED90FC905D97E114F10479F481E090E0A6
:1005300013969C938E93129790E080E0DF91CF9179
:100540001F910F91FF90EF9008955196ED91FC91BE
:10055000529750968C915097982F90950FB75E9622
:100560002C915E97122F127021FD6095F8942081D6
:10057000112319F1282B2083E7012197F1F728E0B7
:10058000462F50E0308160FF1AC0382B3083E701DE
:100590002197F1F7BA0175956795215089F71123D5
:1005A00081F08081892380830FBF5C968D919C911F
:1005B0000197F1F781E090E0C1CF2923DCCF392307
:1005C000E5CF9081892BEFCF20913002309131021D
:1005D0002817390761F480912F0220912E0290E0B4
:1005E000805C9F4F821B91098F739927089590E03B
:1005F00080E00895209130023091310228173907A8
:10060000B9F490912E0280912F02981789F0E09111
:100610002E02F0E0E251FE4F808120912E0230E068
:100620002F5F3F4F2F73332720932E0290E00895C2
:100630008FEF9FEF089590E080E00895FC01019016
:100640000020E9F73197AF01481B590BBC0181E548
:1006500092E00C9442028F929F92AF92BF92CF92FF
:10066000DF92EF92FF920F931F93CF93DF93CDB75B
:10067000DEB7A1970FB6F894DEBF0FBECDBF6C01F9
:10068000990FEE08FF08F7FE47C06DE281E592E0A2
:100690000E94EC008C0122273327A9012C193D0967
:1006A0004E095F0919A2CE0181967C019AE0892E3C
:1006B000912CA12CB12CCA01B901A50194010E9471
:1006C000B415605DF70162937F0121153105410585
:1006D000510589F790E080E0309719F0CF010E9432
:1006E0001E03080F191F8EE291E00E941E03800F67
:1006F000911FA1960FB6F894DEBF0FBECDBFDF915C
:10070000CF911F910F91FF90EF90DF90CF90BF900E
:10071000AF909F908F900895A701960119A28E0126
:100720000F5D1F4F8AE0C82ED12CE12CF12CCA019D
:10073000B901A70196010E94B415605DF8016293AA
:100740008F01211531054105510589F7309729F0B1
:10075000CF010E941E038C01C6CF10E000E0C3CF82
:100760000C941E031F920F920FB60F9211242F9319
:100770003F938F939F93AF93BF9380914902909142
:100780004A02A0914B02B0914C023091480223E002
:10079000230F2D3758F50196A11DB11D2093480256
:1007A0008093490290934A02A0934B02B0934C026B
:1007B00080914D0290914E02A0914F02B091500253
:1007C0000196A11DB11D80934D0290934E02A093FE
:1007D0004F02B0935002BF91AF919F918F913F9183
:1007E0002F910F900FBE0F901F90189526E8230FA2
:1007F0000296A11DB11DD2CF1F920F920FB60F927C
:1008000011242F933F934F935F936F937F938F9315
:100810009F93AF93BF93EF93FF9381E592E00E9484
:10082000CA00FF91EF91BF91AF919F918F917F91FE
:100830006F915F914F913F912F910F900FBE0F904D
:100840001F9018951F920F920FB60F9211242F939D
:100850008F939F93EF93FF93E0916102F091620277
:100860008081E0916702F091680282FD1BC0908157
:1008700080916A028F5F8F7320916B02821741F023
:10088000E0916A02F0E0EF5AFD4F958F80936A0283
:10089000FF91EF919F918F912F910F900FBE0F902D
:1008A0001F9018958081F4CF1F920F920FB60F9270
:1008B00011242F933F934F935F936F937F938F9365
:1008C0009F93AF93BF93EF93FF93E0913002F0912A
:1008D0003102309749F0A685B7858585968D91FFC1
:1008E00014C09C918923A1F4FF91EF91BF91AF9126
:1008F0009F918F917F916F915F914F913F912F9138
:100900000F900FBE0F901F9018959C91892361F74F
:10091000A389B4899C918589809589238C93868944
:1009200097890197F1F7608D718DA685B7855585FB
:1009300038E020E0CB010197F1F7822F90E0959508
:100940008795282F4C91452309F02068315091F765
:10095000868D81FD209580912F0290E001968F7306
:10096000992730912E02381799F0A0912F02B0E00C
:10097000A251BE4F2C9380932F02828D938D0197AD
:10098000F1F7A389B4898C919589892B8C93ACCF8D
:10099000868D8160868FF1CF10925402109253029F
:1009A00088EE93E0A0E0B0E0809355029093560269
:1009B000A0935702B09358022EE031E030935202D8
:1009C0002093510225EC30E030935E0220935D02CB
:1009D00024EC30E03093600220935F0220EC30E0A2
:1009E000309362022093610221EC30E03093640284
:1009F0002093630222EC30E030936602209365027C
:100A000026EC30E0309368022093670210926A026D
:100A100010926B0210926C0210926D021092F10211
:100A20001092F0028093F2029093F302A093F402EA
:100A3000B093F50280E291E09093EF028093EE0292
:100A400010920503109204031092070310920603FC
:100A5000109209031092080310920B0310920A03DC
:100A600060910C036E7F6D7F60930C0366956170DF
:100A700081E068270E946D0161E081E00E94B90178
:100A8000EFEAF0E0E491E093FE02EBE9F0E0E491BC
:100A9000F0E0EE0FFF1FE057FF4F85919491909388
:100AA00000038093FF0260E080E00E94B901809122
:100AB0000C0381FD04C061E080E00E946D01109292
:100AC000FA02EEEAF0E0E491E093FB02EAE9F0E0FA
:100AD000E491F0E0EE0FFF1FEA57FF4F85919491EC
:100AE0009093FD028093FC020895789484B582600F
:100AF00084BD84B5816084BD85B5826085BD85B5C2
:100B0000816085BD80916E00816080936E0010923F
:100B100081008091810082608093810080918100BA
:100B2000816080938100809180008160809380004B
:100B30008091B10084608093B1008091B0008160A9
:100B40008093B00080917A00846080937A008091D5
:100B50007A00826080937A0080917A00816080932D
:100B60007A0080917A00806880937A001092C100A8
:100B700010920903109208031092070310920603C3
:100B800010920503109204038DE991E090930B03FA
:100B900080930A039091FA02963108F047C02DEB3A
:100BA00030E030930503209304032BE931E03093C8
:100BB0000703209306032CE231E0309309032093CE
:100BC00008032091680084E0983048F031E09E30BE
:100BD00008F430E081E001C0880F3A95EAF7822BF3
:100BE000809368002DE630E0983050F02BE630E03E
:100BF0009E3030F02CE630E0963110F030E020E00E
:100C00003093020320930103292F30E0983008F03D
:100C10007BC181E001C0880F9A95EAF780930303B6
:100C200080910A0390910B030197F1F780910803DB
:100C300090910903892B49F1E0913002F091310242
:100C400022E0EE3EF20709F1309739F0A389B4892A
:100C50009C918589809589238C9380910C038E7F4C
:100C600080930C0310922F0210922E028EEE92E0CF
:100C70009093310280933002E0910103F0910203DE
:100C8000808190910303892B808361E086E10E943B
:100C9000B90161E084E00E94B90161E085E00E9451
:100CA000B90161E086E00E94B90161E087E00E943D
:100CB000B90161E088E00E94B90161E089E00E9429
:100CC000B90161E08AE00E94B90161E08BE00E9415
:100CD000B90161E08CE00E94B90161E08DE00E9401
:100CE000B90161E08EE00E94B90161E08FE00E94ED
:100CF000B90161E080E10E94B90161E081E10E94F7
:100D0000B90161E082E10E94B90161E083E10E94E2
:100D1000B90161E084E10E94B90161E085E10E94CE
:100D2000B90161E086E10E94B90181E090E0909311
:100D30003B0280933A029093390280933802909359
:100D40003702809336029093350280933402909359
:100D500033028093320210923D0210923C021092B4
:100D600047021092460210923F0210923E021092E9
:100D700041021092400210924502109244021092D9
:100D800043021092420288E2282E312C97E2492E2B
:100D9000512C26E2622E712C05E210E034E2E32EA3
:100DA000F12C43E2C42ED12C8EEE92E00E94E4029C
:100DB0001816190694F48EEE92E00E94FA029093AF
:100DC00047028093460281E391E00E94B003809144
:100DD0004602909147020E942B0380914602909117
:100DE00047028B3091050CF458C020914402309199
:100DF00045023093430220934202209140023091F9
:100E00004102309345022093440220913E023091EA
:100E10003F02309341022093400290933F0280931F
:100E20003E0280E491E00E94B003809146029091DE
:100E300047020E942B038EE491E00E94B003809150
:100E40003E0290913F020E942B038CE591E00E94AC
:100E5000B00380914002909141020E942B038AE6E8
:100E600091E00E94B00380914402909145020E945B
:100E70002B0388E791E00E94B00380914202909199
:100E800043020E942B0386E891E00E94B003809108
:100E90003C0290913D020E942B03409146025091EA
:100EA00047024A30510509F0C2C0209140023091FA
:100EB00041022033310509F0FDC380913E0290913B
:100EC0003F0241E050E08133910559F142E050E0AA
:100ED0008233910531F18333910539F543E050E0D8
:100EE00050933D0240933C028633910509F046C081
:100EF00026E030E030933D0220933C02C99709F090
:100F000046C089E090E03FC09E3040F4285031094F
:100F100081E001C0880F2A95EAF780CE2E50310972
:100F2000F7CF50933D0240933C028433910501F189
:100F300085339105C9F645E050E050933D0240935A
:100F40003C0288339105D1F688E090E090933D0211
:100F500080933C0224333105D1F480913E0290917C
:100F60003F02C097A1F430923D0220923C020FC094
:100F700044E050E050933D0240933C02873391059A
:100F800001F787E090E090933D0280933C0284E972
:100F900091E00E94B00380914602909147020E9426
:100FA0002B0383EA91E00E94B00380913E0290916E
:100FB0003F020E942B0382EB91E00E94B0038091DC
:100FC0004002909141020E942B0381EC91E00E942B
:100FD000B00380914402909145020E942B0380ED62
:100FE00091E00E94B00380914202909143020E94DE
:100FF0002B038FED91E00E94B00380913C02909111
:101000003D020E942B031092430210924202109262
:101010004502109244021092410210924002109236
:101020003F0210923E0210924702109246028091B7
:101030003C0290913D028130910541F490933B0236
:1010400080933A0210923D0210923C0280913C0241
:1010500090913D028230910541F490933B02809340
:101060003A0210923D0210923C0280913C02909113
:101070003D028330910541F490933B0280933A0204
:1010800010923D0210923C0280913C0290913D02F0
:101090008430910541F490933B0280933A02109280
:1010A0003D0210923C0280913C0290913D028530BD
:1010B000910541F490933B0280933A0210923D02D5
:1010C00010923C0280913C0290913D028630910545
:1010D00041F490933B0280933A0210923D021092A9
:1010E0003C0280913C0290913D028730910541F491
:1010F00090933B0280933A0210923D0210923C0280
:1011000080913C0290913D028830910541F490938A
:101110003B0280933A0210923D0210923C02809171
:101120003C0290913D02099751F410923D021092B9
:101130003C0281E090E090933902809338028091E4
:101140003C0290913D020A9751F410923D02109298
:101150003C0282E090E090933902809338028091C3
:101160003C0290913D020B9751F410923D02109277
:101170003C0283E090E090933902809338028091A2
:101180003C0290913D020C9751F410923D02109256
:101190003C0284E090E09093390280933802809181
:1011A0003C0290913D020D9751F410923D02109235
:1011B0003C0285E090E09093390280933802809160
:1011C0003C0290913D020E9751F410923D02109214
:1011D0003C0286E090E0909339028093380280913F
:1011E0003C0290913D020F9751F410923D021092F3
:1011F0003C0287E090E0909339028093380280911E
:101200003C0290913D02409751F410923D021092A1
:101210003C0288E090E090933902809338028091FC
:101220003C0290913D02419751F410923D02109280
:101230003C0281E090E090933702809336028091E7
:101240003C0290913D02429751F410923D0210925F
:101250003C0282E090E090933702809336028091C6
:101260003C0290913D02439751F410923D0210923E
:101270003C0283E090E090933702809336028091A5
:101280003C0290913D02449751F410923D0210921D
:101290003C0284E090E09093370280933602809184
:1012A0003C0290913D02459751F410923D021092FC
:1012B0003C0285E090E09093370280933602809163
:1012C0003C0290913D02469751F410923D021092DB
:1012D0003C0286E090E09093370280933602809142
:1012E0003C0290913D02479751F410923D021092BA
:1012F0003C0287E090E09093370280933602809121
:101300003C0290913D02489751F410923D02109298
:101310003C0288E090E090933702809336028091FF
:101320003C0290913D02499751F410923D02109277
:101330003C0281E090E090933502809334028091EA
:101340003C0290913D024A9751F410923D02109256
:101350003C0282E090E090933502809334028091C9
:101360003C0290913D024B9751F410923D02109235
:101370003C0283E090E090933502809334028091A8
:101380003C0290913D024C9751F410923D02109214
:101390003C0284E090E09093350280933402809187
:1013A0003C0290913D024D9751F410923D021092F3
:1013B0003C0285E090E09093350280933402809166
:1013C0003C0290913D024E9751F410923D021092D2
:1013D0003C0286E090E09093350280933402809145
:1013E0003C0290913D024F9751F410923D021092B1
:1013F0003C0287E090E09093350280933402809124
:101400003C0290913D02809751F410923D0210925F
:101410003C0288E090E09093350280933402809102
:101420003C0290913D02819751F410923D0210923E
:101430003C0281E090E090933302809332028091ED
:101440003C0290913D02829751F410923D0210921D
:101450003C0282E090E090933302809332028091CC
:101460003C0290913D02839751F410923D021092FC
:101470003C0283E090E090933302809332028091AB
:101480003C0290913D02849751F410923D021092DB
:101490003C0284E090E0909333028093320280918A
:1014A0003C0290913D02859751F410923D021092BA
:1014B0003C0285E090E09093330280933202809169
:1014C0003C0290913D02869751F410923D02109299
:1014D0003C0286E090E09093330280933202809148
:1014E0003C0290913D02879751F410923D02109278
:1014F0003C0287E090E09093330280933202809127
:101500003C0290913D02889751F410923D02109256
:101510003C0288E090E09093330280933202C091C5
:101520003A02D0913B02C330D10509F086C184E074
:1015300090E09093010180930001C830D10509F03B
:1015400089C188E190E09093010180930001C5304A
:10155000D10509F014C361E086E10E946D0161E0EC
:1015600084E00E946D0160E085E00E946D0160E012
:1015700086E00E946D0168E170E080E090E00E94EA
:101580000F0261E086E10E946D0160E084E00E944C
:101590006D0160E085E00E946D0160E086E00E94E0
:1015A0006D0168E170E080E090E00E940F0261E070
:1015B00086E10E946D0160E084E00E946D0160E0C0
:1015C00085E00E946D0161E086E00E946D0168E1A6
:1015D00070E080E090E00E940F0260E086E10E94EF
:1015E0006D0160E084E00E946D0160E085E00E9492
:1015F0006D0161E086E00E946D0168E170E080E0CD
:1016000090E00E940F0260E086E10E946D0160E0C0
:1016100084E00E946D0161E085E00E946D0161E05F
:1016200086E00E946D0168E170E080E090E00E9439
:101630000F0260E086E10E946D0160E084E00E949C
:101640006D0161E085E00E946D0160E086E00E942E
:101650006D0168E170E080E090E00E940F0260E0C0
:1016600086E10E946D0161E084E00E946D0161E00D
:1016700085E00E946D0160E086E00E946D0168E1F6
:1016800070E080E090E00E940F0260E086E10E943E
:101690006D0161E084E00E946D0160E085E00E94E0
:1016A0006D0160E086E00E946D0168E170E080E01D
:1016B00090E063C22133310511F00C945D158091E7
:1016C0003E0290913F028033910511F00C94371542
:1016D00050933D0240933C028333910599F084334B
:1016E000910511F00C9449154EE050E050933D02E5
:1016F00040933C028733910511F00C94541581E11D
:1017000090E041CC4DE050E050933D0240933C02CC
:101710008633910579F720E130E030933D02209344
:101720003C02C99709F033CC83E190E02CCC809146
:101730003E0290913F0224E130E080339105E9F0D0
:1017400025E130E081339105C1F082339105C9F480
:1017500026E130E030933D0220933C028533910531
:1017600041F529E130E030933D0220933C0288337B
:10177000910541F58CE190E006CC30933D02209339
:101780003C028333910579F08433910539F728E1E0
:1017900030E030933D0220933C028733910539F7C6
:1017A0008BE190E0F0CB27E130E030933D022093D5
:1017B0003C028633910589F72AE130E030933D02FF
:1017C00020933C02C99709F0E2CB2DE130E0309341
:1017D0003D0220933C02DBCB30933D0220933C0240
:1017E00083339105A9F08433910511F00C9484158D
:1017F00022E230E030933D0220933C028733910592
:1018000011F00C948D1510933D0200933C02BFCB58
:1018100021E230E030933D0220933C028633910573
:1018200069F7F0923D02E0923C02C99709F0AFCB14
:1018300050923D0240923C02AACBC630D10509F439
:1018400076CEC430D105B9F488E090E090930101E0
:1018500080930001C130D105B9F460E086E10E94B7
:101860006D0160E084E00E946D0160E085E00E940F
:101870006D0160E01AC0C530D105F9F488E190E04F
:101880009093010180930001C230D10509F0C3C0DB
:1018900061E086E10E946D0161E084E00E946D01DB
:1018A00061E085E00E946D0161E086E00E946D01CB
:1018B00068E070E080E090E060C1C730D10509F0D9
:1018C0003CCE88E090E09093010180930001C43009
:1018D000D10509F03CCE61E086E10E946D0161E036
:1018E00084E00E946D0160E085E00E946D0160E08F
:1018F00086E00E946D0168E070E080E090E00E9468
:101900000F0261E086E10E946D0160E084E00E94C8
:101910006D0160E085E00E946D0160E086E00E945C
:101920006D0168E070E080E090E00E940F0261E0ED
:1019300086E10E946D0160E084E00E946D0160E03C
:1019400085E00E946D0161E086E00E946D0168E023
:1019500070E080E090E00E940F0260E086E10E946B
:101960006D0160E084E00E946D0160E085E00E940E
:101970006D0161E086E00E946D0168E070E080E04A
:1019800090E00E940F0260E086E10E946D0160E03D
:1019900084E00E946D0161E085E00E946D0161E0DC
:1019A00086E00E946D0168E070E080E090E00E94B7
:1019B0000F0260E086E10E946D0160E084E00E9419
:1019C0006D0161E085E00E946D0160E086E00E94AB
:1019D0006D0168E070E080E090E00E940F0260E03E
:1019E00086E10E946D0161E084E00E946D0161E08A
:1019F00085E00E946D0160E086E00E946D0168E074
:101A000070E080E090E00E940F0260E086E10E94BA
:101A10006D0161E027CFC330D10509F058CF61E0F7
:101A200086E10E946D0161E084E00E946D0160E04A
:101A300085E00E946D0160E086E00E946D0164E037
:101A400070E080E090E00E940F0261E086E10E9479
:101A50006D0160E084E00E946D0160E085E00E941D
:101A60006D0160E086E00E946D0164E070E080E05E
:101A700090E00E940F0261E086E10E946D0160E04B
:101A800084E00E946D0160E085E00E946D0161E0EC
:101A900086E00E946D0164E070E080E090E00E94CA
:101AA0000F0260E086E10E946D0160E084E00E9428
:101AB0006D0160E085E00E946D0161E086E00E94BA
:101AC0006D0164E070E080E090E00E940F0260E051
:101AD00086E10E946D0160E084E00E946D0161E09A
:101AE00085E00E946D0161E086E00E946D0164E086
:101AF00070E080E090E00E940F0260E086E10E94CA
:101B00006D0160E084E00E946D0161E085E00E946B
:101B10006D0160E086E00E946D0164E070E080E0AD
:101B200090E00E940F0260E086E10E946D0161E09A
:101B300084E00E946D0161E085E00E946D0160E03B
:101B400086E00E946D0164E070E080E090E00E9419
:101B50000F0260E086E10E946D0161E084E00E9476
:101B60006D0160E085E00E946D0160E086E00E940A
:101B70006D0164E070E080E090E00E940F02269723
:101B8000239708F0A8C061E086E10E946D0160E043
:101B900084E00E946D0160E085E00E946D0161E0DB
:101BA00086E00E946D018090000190900101092C57
:101BB000000CAA08BB08C501B4010E940F0261E035
:101BC00086E10E946D0160E084E00E946D0160E0AA
:101BD00085E00E946D0160E086E00E946D01C50114
:101BE000B4010E940F0261E086E10E946D0161E094
:101BF00084E00E946D0160E085E00E946D0160E07C
:101C000086E00E946D01C501B4010E940F0260E0F0
:101C100086E10E946D0161E084E00E946D0160E058
:101C200085E00E946D0160E086E00E946D01C501C3
:101C3000B4010E940F0260E086E10E946D0161E044
:101C400084E00E946D0161E085E00E946D0160E02A
:101C500086E00E946D01C501B4010E940F0260E0A0
:101C600086E10E946D0160E084E00E946D0161E008
:101C700085E00E946D0160E086E00E946D01C50173
:101C8000B4010E940F0260E086E10E946D0160E0F5
:101C900084E00E946D0161E085E00E946D0161E0D9
:101CA00086E00E946D01C501B4010E940F0260E050
:101CB00086E10E946D0160E084E00E946D0160E0B9
:101CC00085E00E946D0161E086E00E946D01C50122
:101CD000B4010E940F02C0913802D0913902C33082
:101CE000D10519F0C630D10531F484E090E090932D
:101CF000030180930201C430D10519F0C730D1052A
:101D000031F488E090E09093030180930201C530A4
:101D1000D10519F0C830D10531F488E190E09093F5
:101D2000030180930201C130D10509F0FCC060E0DD
:101D300087E00E946D0160E088E00E946D0160E034
:101D400089E00E946D0160E08AE00E946D0160916F
:101D5000020170910301072E000C880B990B0E9461
:101D60000F02C0913602D0913702C330D10519F06D
:101D7000C630D10531F484E090E090930501809362
:101D80000401C430D10519F0C730D10531F488E021
:101D900090E09093050180930401C530D10519F0BE
:101DA000C830D10531F488E190E09093050180932B
:101DB0000401C130D10509F01FC260E08BE00E9430
:101DC0006D0160E08CE00E946D0160E08DE00E949A
:101DD0006D0160E08EE00E946D01609104017091E0
:101DE0000501072E000C880B990B0E940F02C09171
:101DF0003402D0913502C330D10519F0C630D10577
:101E000031F484E090E09093070180930601C430A0
:101E1000D10519F0C730D10531F488E090E09093F6
:101E2000070180930601C530D10519F0C830D105EE
:101E300031F488E190E09093070180930601C1306E
:101E4000D10509F042C360E08FE00E946D0160E0BF
:101E500080E10E946D0160E081E10E946D0160E01F
:101E600082E10E946D016091060170910701072EC9
:101E7000000C880B990B0E940F02C0913202D09186
:101E80003302C330D10519F0C630D10531F484E0F6
:101E900090E09093090180930801C430D10519F0B6
:101EA000C730D10531F488E090E090930901809328
:101EB0000801C530D10519F0C830D10531F488E1E9
:101EC00090E09093090180930801C130D10509F099
:101ED00065C460E083E10E946D0160E084E10E94DE
:101EE0006D0160E085E10E946D0160E086E10E9485
:101EF0006D016091080170910901072E000C880B9B
:101F0000990B0E940F0280E090E0892B11F40C9451
:101F1000D4060E945901882311F40C94D4060E941F
:101F200000000C94D406C230D10571F461E087E062
:101F30000E946D0161E088E00E946D0161E089E02E
:101F40000E946D0161E000CFCE010397039708F076
:101F5000A8C061E087E00E946D0161E088E00E9416
:101F60006D0160E089E00E946D0160E08AE00E94FE
:101F70006D018090020190900301092C000CAA08C9
:101F8000BB08C501B4010E940F0261E087E00E9416
:101F90006D0160E088E00E946D0160E089E00E94D0
:101FA0006D0160E08AE00E946D01C501B4010E94EC
:101FB0000F0261E087E00E946D0160E088E00E940E
:101FC0006D0160E089E00E946D0161E08AE00E949D
:101FD0006D01C501B4010E940F0260E087E00E941C
:101FE0006D0160E088E00E946D0160E089E00E9480
:101FF0006D0161E08AE00E946D01C501B4010E949B
:102000000F0260E087E00E946D0160E088E00E94BE
:102010006D0161E089E00E946D0161E08AE00E944B
:102020006D01C501B4010E940F0260E087E00E94CB
:102030006D0160E088E00E946D0161E089E00E942E
:102040006D0160E08AE00E946D01C501B4010E944B
:102050000F0260E087E00E946D0161E088E00E946D
:102060006D0161E089E00E946D0160E08AE00E94FC
:102070006D01C501B4010E940F0260E087E00E947B
:102080006D0161E088E00E946D0160E089E00E94DE
:102090006D0160E08AE00E946D01C501B4010E94FB
:1020A0000F022697239708F05CCE61E087E00E943C
:1020B0006D0160E088E00E946D0160E089E00E94AF
:1020C0006D0161E08AE00E946D01809002019090B4
:1020D0000301092C000CAA08BB08C501B4010E9429
:1020E0000F0261E087E00E946D0160E088E00E94DD
:1020F0006D0160E089E00E946D0160E08AE00E946D
:102100006D01C501B4010E940F0261E087E00E94E9
:102110006D0161E088E00E946D0160E089E00E944D
:102120006D0160E08AE00E946D01C501B4010E946A
:102130000F0260E087E00E946D0161E088E00E948C
:102140006D0160E089E00E946D0160E08AE00E941C
:102150006D01C501B4010E940F0260E087E00E949A
:102160006D0161E088E00E946D0161E089E00E94FC
:102170006D0160E08AE00E946D01C501B4010E941A
:102180000F0260E087E00E946D0160E088E00E943D
:102190006D0161E089E00E946D0160E08AE00E94CB
:1021A0006D01C501B4010E940F0260E087E00E944A
:1021B0006D0160E088E00E946D0161E089E00E94AD
:1021C0006D0161E08AE00E946D01C501B4010E94C9
:1021D0000F0260E087E00E946D0160E088E00E94ED
:1021E0006D0160E089E00E946D0161E08AE00E947B
:1021F0006D01C501B401B3CDC230D10571F461E008
:102200008BE00E946D0161E08CE00E946D0161E055
:102210008DE00E946D0161E0DDCDCE010397039753
:1022200008F0A8C061E08BE00E946D0161E08CE0E5
:102230000E946D0160E08DE00E946D0160E08EE023
:102240000E946D018090040190900501092C000C02
:10225000AA08BB08C501B4010E940F0261E08BE02F
:102260000E946D0160E08CE00E946D0160E08DE0F5
:102270000E946D0160E08EE00E946D01C501B40115
:102280000E940F0261E08BE00E946D0160E08CE033
:102290000E946D0160E08DE00E946D0161E08EE0C2
:1022A0000E946D01C501B4010E940F0260E08BE045
:1022B0000E946D0160E08CE00E946D0160E08DE0A5
:1022C0000E946D0161E08EE00E946D01C501B401C4
:1022D0000E940F0260E08BE00E946D0160E08CE0E4
:1022E0000E946D0161E08DE00E946D0161E08EE071
:1022F0000E946D01C501B4010E940F0260E08BE0F5
:102300000E946D0160E08CE00E946D0161E08DE053
:102310000E946D0160E08EE00E946D01C501B40174
:102320000E940F0260E08BE00E946D0161E08CE092
:102330000E946D0161E08DE00E946D0160E08EE021
:102340000E946D01C501B4010E940F0260E08BE0A4
:102350000E946D0161E08CE00E946D0160E08DE003
:102360000E946D0160E08EE00E946D01C501B40124
:102370000E940F022697239708F039CD61E08BE089
:102380000E946D0160E08CE00E946D0160E08DE0D4
:102390000E946D0161E08EE00E946D018090040159
:1023A00090900501092C000CAA08BB08C501B401D6
:1023B0000E940F0261E08BE00E946D0160E08CE002
:1023C0000E946D0160E08DE00E946D0160E08EE092
:1023D0000E946D01C501B4010E940F0261E08BE013
:1023E0000E946D0161E08CE00E946D0160E08DE073
:1023F0000E946D0160E08EE00E946D01C501B40194
:102400000E940F0260E08BE00E946D0161E08CE0B1
:102410000E946D0160E08DE00E946D0160E08EE041
:102420000E946D01C501B4010E940F0260E08BE0C3
:102430000E946D0161E08CE00E946D0161E08DE021
:102440000E946D0160E08EE00E946D01C501B40143
:102450000E940F0260E08BE00E946D0160E08CE062
:102460000E946D0161E08DE00E946D0160E08EE0F0
:102470000E946D01C501B4010E940F0260E08BE073
:102480000E946D0160E08CE00E946D0161E08DE0D2
:102490000E946D0161E08EE00E946D01C501B401F2
:1024A0000E940F0260E08BE00E946D0160E08CE012
:1024B0000E946D0160E08DE00E946D0161E08EE0A0
:1024C0000E946D01C501B40190CCC230D10571F4F8
:1024D00061E08FE00E946D0161E080E10E946D018A
:1024E00061E081E10E946D0161E0BACCCE01039709
:1024F000039708F0A8C061E08FE00E946D0161E0E1
:1025000080E10E946D0160E081E10E946D0160E068
:1025100082E10E946D018090060190900701092CD4
:10252000000CAA08BB08C501B4010E940F0261E0BB
:102530008FE00E946D0160E080E10E946D0160E02B
:1025400081E10E946D0160E082E10E946D01C501A0
:10255000B4010E940F0261E08FE00E946D0160E013
:1025600080E10E946D0160E081E10E946D0161E007
:1025700082E10E946D01C501B4010E940F0260E07A
:102580008FE00E946D0160E080E10E946D0160E0DB
:1025900081E10E946D0161E082E10E946D01C5014F
:1025A000B4010E940F0260E08FE00E946D0160E0C4
:1025B00080E10E946D0161E081E10E946D0161E0B6
:1025C00082E10E946D01C501B4010E940F0260E02A
:1025D0008FE00E946D0160E080E10E946D0161E08A
:1025E00081E10E946D0160E082E10E946D01C50100
:1025F000B4010E940F0260E08FE00E946D0161E073
:1026000080E10E946D0161E081E10E946D0160E066
:1026100082E10E946D01C501B4010E940F0260E0D9
:102620008FE00E946D0161E080E10E946D0160E039
:1026300081E10E946D0160E082E10E946D01C501AF
:10264000B4010E940F022697239708F016CC61E090
:102650008FE00E946D0160E080E10E946D0160E00A
:1026600081E10E946D0161E082E10E946D01809034
:10267000060190900701092C000CAA08BB08C501AF
:10268000B4010E940F0261E08FE00E946D0160E0E2
:1026900080E10E946D0160E081E10E946D0160E0D7
:1026A00082E10E946D01C501B4010E940F0261E048
:1026B0008FE00E946D0161E080E10E946D0160E0A9
:1026C00081E10E946D0160E082E10E946D01C5011F
:1026D000B4010E940F0260E08FE00E946D0161E092
:1026E00080E10E946D0160E081E10E946D0160E087
:1026F00082E10E946D01C501B4010E940F0260E0F9
:102700008FE00E946D0161E080E10E946D0161E057
:1027100081E10E946D0160E082E10E946D01C501CE
:10272000B4010E940F0260E08FE00E946D0160E042
:1027300080E10E946D0161E081E10E946D0160E035
:1027400082E10E946D01C501B4010E940F0260E0A8
:102750008FE00E946D0160E080E10E946D0161E008
:1027600081E10E946D0161E082E10E946D01C5017D
:10277000B4010E940F0260E08FE00E946D0160E0F2
:1027800080E10E946D0160E081E10E946D0161E0E5
:1027900082E10E946D01C501B4016DCBC230D1054B
:1027A00071F461E083E10E946D0161E084E10E94C7
:1027B0006D0161E085E10E946D0161E097CBCE0182
:1027C0000397039708F0A8C061E083E10E946D01C0
:1027D00061E084E10E946D0160E085E10E946D018D
:1027E00060E086E10E946D018090080190900901EF
:1027F000092C000CAA08BB08C501B4010E940F02F5
:1028000061E083E10E946D0160E084E10E946D015E
:1028100060E085E10E946D0160E086E10E946D014B
:10282000C501B4010E940F0261E083E10E946D01C5
:1028300060E084E10E946D0160E085E10E946D012D
:1028400061E086E10E946D01C501B4010E940F02A2
:1028500060E083E10E946D0160E084E10E946D010F
:1028600060E085E10E946D0161E086E10E946D01FA
:10287000C501B4010E940F0260E083E10E946D0176
:1028800060E084E10E946D0161E085E10E946D01DC
:1028900061E086E10E946D01C501B4010E940F0252
:1028A00060E083E10E946D0160E084E10E946D01BF
:1028B00061E085E10E946D0160E086E10E946D01AA
:1028C000C501B4010E940F0260E083E10E946D0126
:1028D00061E084E10E946D0161E085E10E946D018B
:1028E00060E086E10E946D01C501B4010E940F0203
:1028F00060E083E10E946D0161E084E10E946D016E
:1029000060E085E10E946D0160E086E10E946D015A
:10291000C501B4010E940F022697239708F0F3CA5D
:1029200061E083E10E946D0160E084E10E946D013D
:1029300060E085E10E946D0161E086E10E946D0129
:102940008090080190900901092C000CAA08BB088E
:10295000C501B4010E940F0261E083E10E946D0194
:1029600060E084E10E946D0160E085E10E946D01FC
:1029700060E086E10E946D01C501B4010E940F0272
:1029800061E083E10E946D0161E084E10E946D01DC
:1029900060E085E10E946D0160E086E10E946D01CA
:1029A000C501B4010E940F0260E083E10E946D0145
:1029B00061E084E10E946D0160E085E10E946D01AB
:1029C00060E086E10E946D01C501B4010E940F0222
:1029D00060E083E10E946D0161E084E10E946D018D
:1029E00061E085E10E946D0160E086E10E946D0179
:1029F000C501B4010E940F0260E083E10E946D01F5
:102A000060E084E10E946D0161E085E10E946D015A
:102A100060E086E10E946D01C501B4010E940F02D1
:102A200060E083E10E946D0160E084E10E946D013D
:102A300061E085E10E946D0161E086E10E946D0127
:102A4000C501B4010E940F0260E083E10E946D01A4
:102A500060E084E10E946D0160E085E10E946D010B
:102A600061E086E10E946D01C501B4014ACA4BE0F4
:102A700050E08133910511F40C94680B8233910579
:102A800011F00C946C0B4CE050E050933D024093DD
:102A90003C028533910511F00C94880B4FE050E017
:102AA00050933D0240933C028833910511F00C9401
:102AB000910B82E190E00C94A6072233310511F4CA
:102AC0000C94970B2333310511F00C94AA078091D5
:102AD0003E0290913F022EE130E08033910511F4E7
:102AE0000C94EC0B2FE130E08133910511F40C9440
:102AF000EC0B8233910511F00C94F00B20E230E0E6
:102B000030933D0220933C028533910511F00C94E3
:102B10000E0CD0923D02C0923C028833910511F018
:102B20000C94150C70923D0260923C020C94C70705
:102B300080E291E09093EF028093EE028091300268
:102B4000909131028E5E924071F4E0910103F09118
:102B500002039081809103038095892380831092E2
:102B60003102109230020895A1E21A2EAA1BBB1B5B
:102B7000FD010DC0AA1FBB1FEE1FFF1FA217B30749
:102B8000E407F50720F0A21BB30BE40BF50B661F5F
:102B9000771F881F991F1A9469F760957095809523
:102BA00090959B01AC01BD01CF010895EE0FFF1F71
:102BB0000590F491E02D099410E0C2E6D0E004C045
:102BC000FE010E94D6152196C336D107C9F7F894A5
:022BD000FFCF35
:102BD2000800080008000800080000000000EC00DF
:102BE20042028D003901BE009C00B00000000000CE
:102BF200880242021B038702E402FA026F020D0AF4
:102C0200004920726563656976656432323A200054
:102C120049207265636569766564303A200049200F
:102C22007265636569766564313A20004920726590
:102C3200636569766564323A20004920726563658E
:102C420069766564333A2000492072656365697666
:102C52006564343A2000492072656365697665646B
:102C6200353A2000492072656365697665643036BD
:102C72003A20004920726563656976656431363AA7
:102C820020004920726563656976656432363A20B0
:102C9200004920726563656976656433363A2000BF
:102CA2004920726563656976656434363A20004965
:0E2CB20020726563656976656435363A2000E8
:00000001FF
