:100000000C9461000C947E000C947E000C947E0095
:100010000C947E000C947E000C947E000C947E0068
:100020000C947E000C947E000C947E000C947E0058
:100030000C947E000C947E000C947E000C947E0048
:100040000C9460010C947E000C947E000C947E0055
:100050000C947E000C947E000C947E000C947E0028
:100060000C947E000C947E0000000000230026000B
:10007000290000000000240027002A0000000000E2
:10008000250028002B0004040404040404040202D4
:100090000202020203030303030301020408102007
:1000A0004080010204081020010204081020000012
:1000B0000008000201000003040700000000000027
:1000C000000011241FBECFEFD8E0DEBFCDBF11E08E
:1000D000A0E0B1E0EEE7FCE102C005900D92A23095
:1000E000B107D9F721E0A2E0B1E001C01D92A9312A
:1000F000B207E1F70E94AA010C943D0E0C94000097
:10010000833081F028F4813099F08230A9F008958D
:100110008730A9F08830C9F08430B1F48091800034
:100120008F7D03C0809180008F7780938000089539
:1001300084B58F7784BD089584B58F7DFBCF809182
:10014000B0008F778093B00008958091B0008F7DCC
:10015000F9CF1F93CF93DF93282F30E0F901E255B9
:10016000FF4F8491F901E656FF4FD491F901EA5708
:10017000FF4FC491CC23A9F0162F81110E9480005B
:10018000EC2FF0E0EE0FFF1FE458FF4FA591B49164
:100190008FB7F894EC91111108C0D095DE23DC9351
:1001A0008FBFDF91CF911F910895DE2BF8CFCF93B2
:1001B000DF9390E0FC01E656FF4F24918A579F4F52
:1001C000FC0184918823D1F090E0880F991FFC01F5
:1001D000EE58FF4FA591B491FC01E458FF4FC59133
:1001E000D49161110EC09FB7F8948C91E22FE095E5
:1001F0008E238C932881E223E8839FBFDF91CF91E8
:1002000008958FB7F894EC91E22BEC938FBFF6CF63
:100210003FB7F8948091150190911601A0911701B4
:10022000B091180126B5A89B05C02F3F19F0019683
:10023000A11DB11D3FBFBA2FA92F982F8827BC0140
:10024000CD01620F711D811D911D42E0660F771F68
:10025000881F991F4A95D1F708958F929F92AF9268
:10026000BF92CF92DF92EF92FF926B017C010E94CE
:1002700008014B015C01C114D104E104F104B9F09F
:100280000E940801681979098A099B09683E734030
:100290008105910580F321E0C21AD108E108F10837
:1002A00088EE880E83E0981EA11CB11CE4CFFF905D
:1002B000EF90DF90CF90BF90AF909F908F90089578
:1002C0001F920F920FB60F9211242F933F938F938B
:1002D0009F93AF93BF938091110190911201A091D0
:1002E0001301B09114013091100123E0230F2D3739
:1002F00058F50196A11DB11D2093100180931101A5
:1003000090931201A0931301B093140180911501F1
:1003100090911601A0911701B09118010196A11DAD
:10032000B11D8093150190931601A0931701B0930E
:100330001801BF91AF919F918F913F912F910F9095
:100340000FBE0F901F90189526E8230F0296A11D4F
:10035000B11DD2CF789484B5826084BD84B58160AC
:1003600084BD85B5826085BD85B5816085BD809180
:100370006E00816080936E001092810080918100F8
:1003800082608093810080918100816080938100F0
:10039000809180008160809380008091B1008460B2
:1003A0008093B1008091B00081608093B000809113
:1003B0007A00846080937A0080917A0082608093D2
:1003C0007A0080917A00816080937A0080917A002F
:1003D000806880937A001092C10061E083E00E94FF
:1003E000D70061E084E00E94D70061E085E00E94D0
:1003F000D70061E086E00E94D70061E087E00E94BC
:10040000D70061E088E00E94D70061E089E00E94A7
:10041000D70061E08AE00E94D70061E08BE00E9493
:10042000D70061E08CE00E94D70061E08DE00E947F
:10043000D70061E08EE00E94D70061E08FE00E946B
:10044000D70061E081E10E94D70061E082E10E9473
:10045000D70061E083E10E94D70061E084E10E945F
:10046000D70061E085E10E94D70061E086E10E944B
:10047000D70060E08FE00E94D70081E090E0909389
:100480000B0180930A0190930901809308019093D6
:1004900007018093060190930501809304019093D6
:1004A00003018093020110920D0110920C01CC24E3
:1004B000C394D12C08E010E036E0232E312C45E027
:1004C000442E512C54E0E52EF12C98E1692E712C2C
:1004D000EDEBF0E08491E9EAF0E0D491E5E9F0E0B9
:1004E000C491C11138C310920F0110920E01809176
:1004F0000C0190910D01009711F00C942E0E68E004
:1005000070E080E090E00E942D0180910C019091BC
:100510000D018230910571F490930B0180930A01D3
:1005200010920D0110920C0168E070E080E090E004
:100530000E942D0180910C0190910D018330910555
:1005400071F490930B0180930A0110920D011092A7
:100550000C0168E070E080E090E00E942D01809145
:100560000C0190910D018430910571F490930B0171
:1005700080930A0110920D0110920C0168E070E066
:1005800080E090E00E942D0180910C0190910D017E
:100590008530910571F490930B0180930A011092BC
:1005A0000D0110920C0168E070E080E090E00E9484
:1005B0002D0180910C0190910D018630910571F40F
:1005C00090930B0180930A0110920D0110920C017F
:1005D00068E070E080E090E00E942D0180910C01C5
:1005E00090910D018730910571F490930B018093E8
:1005F0000A0110920D0110920C0168E070E080E099
:1006000090E00E942D0180910C0190910D018830A5
:10061000910571F490930B0180930A0110920D01E2
:1006200010920C0168E070E080E090E00E942D01E3
:1006300080910C0190910D01099771F410920D01B8
:1006400010920C01D0920901C092080168E070E09C
:1006500080E090E00E942D0180910C0190910D01AD
:100660000A9781F410920D0110920C0182E090E043
:10067000909309018093080168E070E080E090E0C9
:100680000E942D0180910C0190910D010B9781F436
:1006900010920D0110920C01E3E0F0E0F0930901DB
:1006A000E093080168E070E080E090E00E942D0196
:1006B00080910C0190910D010C9771F410920D0135
:1006C00010920C01F0920901E092080168E070E0DC
:1006D00080E090E00E942D0180910C0190910D012D
:1006E0000D9771F410920D0110920C0150920901B6
:1006F0004092080168E070E080E090E00E942D01E7
:1007000080910C0190910D010E9771F410920D01E2
:1007100010920C01309209012092080168E070E00B
:1007200080E090E00E942D0180910C0190910D01DC
:100730000F9781F410920D0110920C0187E090E068
:10074000909309018093080168E070E080E090E0F8
:100750000E942D0180910C0190910D01409771F440
:1007600010920D0110920C011093090100930801E1
:1007700068E070E080E090E00E942D0180910C0123
:1007800090910D01419771F410920D0110920C019E
:10079000D0920701C092060168E070E080E090E02E
:1007A0000E942D0180910C0190910D01429781F4DE
:1007B00010920D0110920C01E2E0F0E0F0930701BD
:1007C000E093060168E070E080E090E00E942D0177
:1007D00080910C0190910D01439781F410920D01CD
:1007E00010920C0183E090E0909307018093060142
:1007F00068E070E080E090E00E942D0180910C01A3
:1008000090910D01449771F410920D0110920C011A
:10081000F0920701E092060168E070E080E090E06D
:100820000E942D0180910C0190910D01459771F46A
:1008300010920D0110920C01509207014092060196
:1008400068E070E080E090E00E942D0180910C0152
:1008500090910D01469771F410920D0110920C01C8
:10086000309207012092060168E070E080E090E09D
:100870000E942D0180910C0190910D01479781F408
:1008800010920D0110920C01E7E0F0E0F0930701E7
:10089000E093060168E070E080E090E00E942D01A6
:1008A00080910C0190910D01489771F410920D0107
:1008B00010920C01109307010093060168E070E0AC
:1008C00080E090E00E942D0180910C0190910D013B
:1008D000499771F410920D0110920C01D09205010C
:1008E000C092040168E070E080E090E00E942D0179
:1008F00080910C0190910D014A9781F410920D01A5
:1009000010920C0182E090E0909305018093040125
:1009100068E070E080E090E00E942D0180910C0181
:1009200090910D014B9781F410920D0110920C01E2
:10093000E3E0F0E0F0930501E093040168E070E08B
:1009400080E090E00E942D0180910C0190910D01BA
:100950004C9771F410920D0110920C01F092050168
:10096000E092040168E070E080E090E00E942D01D8
:1009700080910C0190910D014D9771F410920D0131
:1009800010920C01509205014092040168E070E061
:1009900080E090E00E942D0180910C0190910D016A
:1009A0004E9771F410920D0110920C0130920501D6
:1009B0002092040168E070E080E090E00E942D0148
:1009C00080910C0190910D014F9781F410920D01CF
:1009D00010920C0187E090E0909305018093040150
:1009E00068E070E080E090E00E942D0180910C01B1
:1009F00090910D01809771F410920D0110920C01ED
:100A0000109305010093040168E070E080E090E03D
:100A10000E942D0180910C0190910D01819771F43C
:100A200010920D0110920C01D0920301C0920201AC
:100A300068E070E080E090E00E942D0180910C0160
:100A400090910D01829781F410920D0110920C018A
:100A5000E2E0F0E0F0930301E093020168E070E06F
:100A600080E090E00E942D0180910C0190910D0199
:100A7000839781F410920D0110920C0183E090E0B5
:100A8000909303018093020168E070E080E090E0C1
:100A90000E942D0180910C0190910D01849771F4B9
:100AA00010920D0110920C01F0920301E0920201EC
:100AB00068E070E080E090E00E942D0180910C01E0
:100AC00090910D01859771F410920D0110920C0117
:100AD000509203014092020168E070E080E090E0F3
:100AE0000E942D0180910C0190910D01869771F467
:100AF00010920D0110920C0130920301209202011C
:100B000068E070E080E090E00E942D0180910C018F
:100B100090910D01879781F410920D0110920C01B4
:100B2000E7E0F0E0F0930301E093020168E070E099
:100B300080E090E00E942D0180910C0190910D01C8
:100B40008897B9F510920D0110920C0110930301D2
:100B50000093020128C081110E948000EC2FF0E078
:100B6000EE0FFF1FE859FF4FA591B4918C91D82348
:100B700009F4B9CCC0910C01D0910D01D0920F01B4
:100B8000C0920E012196D0930D01C0930C0168E034
:100B900070E080E090E00E942D01A99751F410923E
:100BA0000D0110920C0168E070E080E090E00E947E
:100BB0002D01C0910A01D0910B01C330D10519F06C
:100BC000C630D10521F4F0920101E0920001C43059
:100BD000D10519F0C730D10521F41093010100931C
:100BE0000001C530D10519F0C830D10521F470924B
:100BF000010160920001C130D10509F022C160E01D
:100C000083E00E94A90060E084E00E94A90060E007
:100C100085E00E94A90060E086E00E94A900609142
:100C2000000170910101072E000C880B990B0E94A6
:100C30002D01C0910801D0910901C330D10519F0EF
:100C4000C630D10521F4F0920101E0920001C430D8
:100C5000D10519F0C730D10521F41093010100939B
:100C60000001C530D10519F0C830D10521F47092CA
:100C7000010160920001C130D10509F04BC260E072
:100C800087E00E94A90060E088E00E94A90060E07F
:100C900089E00E94A90060E08AE00E94A9006091BA
:100CA000000170910101072E000C880B990B0E9426
:100CB0002D01C0910601D0910701C330D10519F073
:100CC000C630D10521F4F0920101E0920001C43058
:100CD000D10519F0C730D10521F41093010100931B
:100CE0000001C530D10519F0C830D10521F470924A
:100CF000010160920001C130D10509F074C360E0C8
:100D00008BE00E94A90060E08CE00E94A90060E0F6
:100D10008DE00E94A90060E08EE00E94A900609131
:100D2000000170910101072E000C880B990B0E94A5
:100D30002D01C0910401D0910501C330D10519F0F6
:100D4000C630D10521F4F0920101E0920001C430D7
:100D5000D10519F0C730D10521F41093010100939A
:100D60000001C530D10519F0C830D10521F47092C9
:100D7000010160920001C130D10509F09DC460E01D
:100D80008FE00E94A90060E080E10E94A90060E07D
:100D900081E10E94A90060E082E10E94A9006091C7
:100DA000000170910101072E000C880B990B0E9425
:100DB0002D01C0910201D0910301C330D10519F07A
:100DC000C630D10521F4F0920101E0920001C43057
:100DD000D10519F0C730D10521F41093010100931A
:100DE0000001C530D10519F0C830D10521F4709249
:100DF000010160920001C130D10509F0C6C560E073
:100E000083E10E94A90060E084E10E94A90060E003
:100E100085E10E94A90060E086E10E94A90060913E
:100E2000000170910101072E000C880B990B0E94A4
:100E30002D0180E090E0892B09F44ACB0E9400004C
:100E400044CBC230D10571F461E083E00E94A90077
:100E500061E084E00E94A90061E085E00E94A900B1
:100E600061E0DACECE010397039708F0A8C061E0F5
:100E700083E00E94A90061E084E00E94A90060E094
:100E800085E00E94A90060E086E00E94A9008090B1
:100E9000000190900101092C000CAA08BB08C501B3
:100EA000B4010E942D0161E083E00E94A90060E08E
:100EB00084E00E94A90060E085E00E94A90060E053
:100EC00086E00E94A900C501B4010E942D0161E0E5
:100ED00083E00E94A90060E084E00E94A90060E035
:100EE00085E00E94A90061E086E00E94A900C5019A
:100EF000B4010E942D0160E083E00E94A90060E03F
:100F000084E00E94A90060E085E00E94A90061E001
:100F100086E00E94A900C501B4010E942D0160E095
:100F200083E00E94A90060E084E00E94A90061E0E3
:100F300085E00E94A90061E086E00E94A900C50149
:100F4000B4010E942D0160E083E00E94A90060E0EE
:100F500084E00E94A90061E085E00E94A90060E0B1
:100F600086E00E94A900C501B4010E942D0160E045
:100F700083E00E94A90061E084E00E94A90061E092
:100F800085E00E94A90060E086E00E94A900C501FA
:100F9000B4010E942D0160E083E00E94A90061E09D
:100FA00084E00E94A90060E085E00E94A90060E062
:100FB00086E00E94A900C501B4010E942D01269778
:100FC000239708F036CE61E083E00E94A90060E03C
:100FD00084E00E94A90060E085E00E94A90061E031
:100FE00086E00E94A9008090000190900101092CE8
:100FF000000CAA08BB08C501B4010E942D0161E0E4
:1010000083E00E94A90060E084E00E94A90060E003
:1010100085E00E94A90060E086E00E94A900C50169
:10102000B4010E942D0161E083E00E94A90061E00B
:1010300084E00E94A90060E085E00E94A90060E0D1
:1010400086E00E94A900C501B4010E942D0160E064
:1010500083E00E94A90061E084E00E94A90060E0B2
:1010600085E00E94A90060E086E00E94A900C50119
:10107000B4010E942D0160E083E00E94A90061E0BC
:1010800084E00E94A90061E085E00E94A90060E080
:1010900086E00E94A900C501B4010E942D0160E014
:1010A00083E00E94A90060E084E00E94A90061E062
:1010B00085E00E94A90060E086E00E94A900C501C9
:1010C000B4010E942D0160E083E00E94A90060E06D
:1010D00084E00E94A90061E085E00E94A90061E02F
:1010E00086E00E94A900C501B4010E942D0160E0C4
:1010F00083E00E94A90060E084E00E94A90060E013
:1011000085E00E94A90061E086E00E94A900C50177
:10111000B4018DCDC230D10571F461E087E00E9449
:10112000A90061E088E00E94A90061E089E00E94D6
:10113000A90061E0B1CDCE010397039708F0A8C0E4
:1011400061E087E00E94A90061E088E00E94A900B8
:1011500060E089E00E94A90060E08AE00E94A900A6
:101160008090000190900101092C000CAA08BB0896
:10117000C501B4010E942D0161E087E00E94A90031
:1011800060E088E00E94A90060E089E00E94A90078
:1011900060E08AE00E94A900C501B4010E942D010F
:1011A00061E087E00E94A90060E088E00E94A90059
:1011B00060E089E00E94A90061E08AE00E94A90045
:1011C000C501B4010E942D0160E087E00E94A900E2
:1011D00060E088E00E94A90060E089E00E94A90028
:1011E00061E08AE00E94A900C501B4010E942D01BE
:1011F00060E087E00E94A90060E088E00E94A9000A
:1012000061E089E00E94A90061E08AE00E94A900F3
:10121000C501B4010E942D0160E087E00E94A90091
:1012200060E088E00E94A90061E089E00E94A900D6
:1012300060E08AE00E94A900C501B4010E942D016E
:1012400060E087E00E94A90061E088E00E94A900B8
:1012500061E089E00E94A90060E08AE00E94A900A4
:10126000C501B4010E942D0160E087E00E94A90041
:1012700061E088E00E94A90060E089E00E94A90086
:1012800060E08AE00E94A900C501B4010E942D011E
:101290002697239708F00DCD61E087E00E94A90012
:1012A00060E088E00E94A90060E089E00E94A90057
:1012B00061E08AE00E94A900809000019090010105
:1012C000092C000CAA08BB08C501B4010E942D011D
:1012D00061E087E00E94A90060E088E00E94A90028
:1012E00060E089E00E94A90060E08AE00E94A90015
:1012F000C501B4010E942D0161E087E00E94A900B0
:1013000061E088E00E94A90060E089E00E94A900F5
:1013100060E08AE00E94A900C501B4010E942D018D
:1013200060E087E00E94A90061E088E00E94A900D7
:1013300060E089E00E94A90060E08AE00E94A900C4
:10134000C501B4010E942D0160E087E00E94A90060
:1013500061E088E00E94A90061E089E00E94A900A4
:1013600060E08AE00E94A900C501B4010E942D013D
:1013700060E087E00E94A90060E088E00E94A90088
:1013800061E089E00E94A90060E08AE00E94A90073
:10139000C501B4010E942D0160E087E00E94A90010
:1013A00060E088E00E94A90061E089E00E94A90055
:1013B00061E08AE00E94A900C501B4010E942D01EC
:1013C00060E087E00E94A90060E088E00E94A90038
:1013D00060E089E00E94A90061E08AE00E94A90023
:1013E000C501B40164CCC230D10571F461E08BE079
:1013F0000E94A90061E08CE00E94A90061E08DE0FC
:101400000E94A90061E088CCCE010397039708F001
:10141000A8C061E08BE00E94A90061E08CE00E941E
:10142000A90060E08DE00E94A90060E08EE00E94CB
:10143000A9008090000190900101092C000CAA08DD
:10144000BB08C501B4010E942D0161E08BE00E9440
:10145000A90060E08CE00E94A90060E08DE00E949D
:10146000A90060E08EE00E94A900C501B4010E94BD
:101470002D0161E08BE00E94A90060E08CE00E94F9
:10148000A90060E08DE00E94A90061E08EE00E946A
:10149000A900C501B4010E942D0160E08BE00E940B
:1014A000A90060E08CE00E94A90060E08DE00E944D
:1014B000A90061E08EE00E94A900C501B4010E946C
:1014C0002D0160E08BE00E94A90060E08CE00E94AA
:1014D000A90061E08DE00E94A90061E08EE00E9419
:1014E000A900C501B4010E942D0160E08BE00E94BB
:1014F000A90060E08CE00E94A90061E08DE00E94FC
:10150000A90060E08EE00E94A900C501B4010E941C
:101510002D0160E08BE00E94A90061E08CE00E9458
:10152000A90061E08DE00E94A90060E08EE00E94C9
:10153000A900C501B4010E942D0160E08BE00E946A
:10154000A90061E08CE00E94A90060E08DE00E94AB
:10155000A90060E08EE00E94A900C501B4010E94CC
:101560002D012697239708F0E4CB61E08BE00E94E1
:10157000A90060E08CE00E94A90060E08DE00E947C
:10158000A90061E08EE00E94A90080900001909087
:101590000101092C000CAA08BB08C501B4010E9476
:1015A0002D0161E08BE00E94A90060E08CE00E94C8
:1015B000A90060E08DE00E94A90060E08EE00E943A
:1015C000A900C501B4010E942D0161E08BE00E94D9
:1015D000A90061E08CE00E94A90060E08DE00E941B
:1015E000A90060E08EE00E94A900C501B4010E943C
:1015F0002D0160E08BE00E94A90061E08CE00E9478
:10160000A90060E08DE00E94A90060E08EE00E94E9
:10161000A900C501B4010E942D0160E08BE00E9489
:10162000A90061E08CE00E94A90061E08DE00E94C9
:10163000A90060E08EE00E94A900C501B4010E94EB
:101640002D0160E08BE00E94A90060E08CE00E9428
:10165000A90061E08DE00E94A90060E08EE00E9498
:10166000A900C501B4010E942D0160E08BE00E9439
:10167000A90060E08CE00E94A90061E08DE00E947A
:10168000A90061E08EE00E94A900C501B4010E949A
:101690002D0160E08BE00E94A90060E08CE00E94D8
:1016A000A90060E08DE00E94A90061E08EE00E9448
:1016B000A900C501B4013BCBC230D10571F461E092
:1016C0008FE00E94A90061E080E10E94A90061E032
:1016D00081E10E94A90061E05FCBCE0103970397EF
:1016E00008F0A8C061E08FE00E94A90061E080E1FD
:1016F0000E94A90060E081E10E94A90060E082E10F
:101700000E94A9008090000190900101092C000C1A
:10171000AA08BB08C501B4010E942D0161E08FE059
:101720000E94A90060E080E10E94A90060E081E1E0
:101730000E94A90060E082E10E94A900C501B401F5
:101740000E942D0161E08FE00E94A90060E080E12D
:101750000E94A90060E081E10E94A90061E082E1AD
:101760000E94A900C501B4010E942D0160E08FE034
:101770000E94A90060E080E10E94A90060E081E190
:101780000E94A90061E082E10E94A900C501B401A4
:101790000E942D0160E08FE00E94A90060E080E1DE
:1017A0000E94A90061E081E10E94A90061E082E15C
:1017B0000E94A900C501B4010E942D0160E08FE0E4
:1017C0000E94A90060E080E10E94A90061E081E13F
:1017D0000E94A90060E082E10E94A900C501B40155
:1017E0000E942D0160E08FE00E94A90061E080E18D
:1017F0000E94A90061E081E10E94A90060E082E10D
:101800000E94A900C501B4010E942D0160E08FE093
:101810000E94A90061E080E10E94A90060E081E1EE
:101820000E94A90060E082E10E94A900C501B40104
:101830000E942D012697239708F0BBCA61E08FE034
:101840000E94A90060E080E10E94A90060E081E1BF
:101850000E94A90061E082E10E94A900809000013D
:1018600090900101092C000CAA08BB08C501B40125
:101870000E942D0161E08FE00E94A90060E080E1FC
:101880000E94A90060E081E10E94A90060E082E17D
:101890000E94A900C501B4010E942D0161E08FE002
:1018A0000E94A90061E080E10E94A90060E081E15E
:1018B0000E94A90060E082E10E94A900C501B40174
:1018C0000E942D0160E08FE00E94A90061E080E1AC
:1018D0000E94A90060E081E10E94A90060E082E12D
:1018E0000E94A900C501B4010E942D0160E08FE0B3
:1018F0000E94A90061E080E10E94A90061E081E10D
:101900000E94A90060E082E10E94A900C501B40123
:101910000E942D0160E08FE00E94A90060E080E15C
:101920000E94A90061E081E10E94A90060E082E1DB
:101930000E94A900C501B4010E942D0160E08FE062
:101940000E94A90060E080E10E94A90061E081E1BD
:101950000E94A90061E082E10E94A900C501B401D2
:101960000E942D0160E08FE00E94A90060E080E10C
:101970000E94A90060E081E10E94A90061E082E18B
:101980000E94A900C501B40112CAC230D10571F488
:1019900061E083E10E94A90061E084E10E94A90066
:1019A00061E085E10E94A90061E036CACE0103979B
:1019B000039708F0A8C061E083E10E94A90061E0FC
:1019C00084E10E94A90060E085E10E94A90060E036
:1019D00086E10E94A9008090000190900101092CED
:1019E000000CAA08BB08C501B4010E942D0161E0EA
:1019F00083E10E94A90060E084E10E94A90060E008
:101A000085E10E94A90060E086E10E94A900C5016D
:101A1000B4010E942D0161E083E10E94A90060E011
:101A200084E10E94A90060E085E10E94A90061E0D4
:101A300086E10E94A900C501B4010E942D0160E069
:101A400083E10E94A90060E084E10E94A90060E0B7
:101A500085E10E94A90061E086E10E94A900C5011C
:101A6000B4010E942D0160E083E10E94A90060E0C2
:101A700084E10E94A90061E085E10E94A90061E083
:101A800086E10E94A900C501B4010E942D0160E019
:101A900083E10E94A90060E084E10E94A90061E066
:101AA00085E10E94A90060E086E10E94A900C501CD
:101AB000B4010E942D0160E083E10E94A90061E071
:101AC00084E10E94A90061E085E10E94A90060E034
:101AD00086E10E94A900C501B4010E942D0160E0C9
:101AE00083E10E94A90061E084E10E94A90060E016
:101AF00085E10E94A90060E086E10E94A900C5017D
:101B0000B4010E942D012697239708F092C961E045
:101B100083E10E94A90060E084E10E94A90060E0E6
:101B200085E10E94A90061E086E10E94A900809001
:101B3000000190900101092C000CAA08BB08C50106
:101B4000B4010E942D0161E083E10E94A90060E0E0
:101B500084E10E94A90060E085E10E94A90060E0A4
:101B600086E10E94A900C501B4010E942D0161E037
:101B700083E10E94A90061E084E10E94A90060E085
:101B800085E10E94A90060E086E10E94A900C501EC
:101B9000B4010E942D0160E083E10E94A90061E090
:101BA00084E10E94A90060E085E10E94A90060E054
:101BB00086E10E94A900C501B4010E942D0160E0E8
:101BC00083E10E94A90061E084E10E94A90061E034
:101BD00085E10E94A90060E086E10E94A900C5019C
:101BE000B4010E942D0160E083E10E94A90060E041
:101BF00084E10E94A90061E085E10E94A90060E003
:101C000086E10E94A900C501B4010E942D0160E097
:101C100083E10E94A90060E084E10E94A90061E0E4
:101C200085E10E94A90061E086E10E94A900C5014A
:101C3000B4010E942D0160E083E10E94A90060E0F0
:101C400084E10E94A90060E085E10E94A90061E0B2
:101C500086E10E94A900C501B401E9C8813091055F
:101C600011F00C94850290930B0180930A0110925D
:0E1C70000D0110920C010C947F02F894FFCF2E
:021C7E0008005C
:00000001FF
